{"contracts/Marketplace.sol":{"Marketplace":{"abi":[{"anonymous":false,"inputs":[{"indexed":false,"internalType":"uint256","name":"id","type":"uint256"},{"indexed":false,"internalType":"address","name":"seller","type":"address"},{"indexed":false,"internalType":"string","name":"name","type":"string"},{"indexed":false,"internalType":"uint256","name":"price","type":"uint256"}],"name":"ItemListed","type":"event"},{"anonymous":false,"inputs":[{"indexed":false,"internalType":"uint256","name":"id","type":"uint256"},{"indexed":false,"internalType":"address","name":"buyer","type":"address"},{"indexed":false,"internalType":"uint256","name":"price","type":"uint256"}],"name":"ItemSold","type":"event"},{"inputs":[{"internalType":"uint256","name":"_id","type":"uint256"}],"name":"buyItem","outputs":[],"stateMutability":"payable","type":"function"},{"inputs":[],"name":"itemCount","outputs":[{"internalType":"uint256","name":"","type":"uint256"}],"stateMutability":"view","type":"function"},{"inputs":[{"internalType":"uint256","name":"","type":"uint256"}],"name":"items","outputs":[{"internalType":"uint256","name":"id","type":"uint256"},{"internalType":"address payable","name":"seller","type":"address"},{"internalType":"string","name":"name","type":"string"},{"internalType":"string","name":"description","type":"string"},{"internalType":"uint256","name":"price","type":"uint256"},{"internalType":"bool","name":"isSold","type":"bool"}],"stateMutability":"view","type":"function"},{"inputs":[{"internalType":"string","name":"_name","type":"string"},{"internalType":"string","name":"_description","type":"string"},{"internalType":"uint256","name":"_price","type":"uint256"}],"name":"listItem","outputs":[],"stateMutability":"nonpayable","type":"function"}],"evm":{"bytecode":{"linkReferences":{},"object":"6080604052348015600f57600080fd5b50610f7f8061001f6000396000f3fe60806040526004361061003f5760003560e01c80630562021c146100445780636bfb0d011461006d578063bfb231d214610098578063e7fb74c7146100da575b600080fd5b34801561005057600080fd5b5061006b60048036038101906100669190610774565b6100f6565b005b34801561007957600080fd5b5061008261029a565b60405161008f919061080e565b60405180910390f35b3480156100a457600080fd5b506100bf60048036038101906100ba9190610829565b6102a0565b6040516100d196959493929190610931565b60405180910390f35b6100f460048036038101906100ef9190610829565b610419565b005b60008111610139576040517f08c379a0000000000000000000000000000000000000000000000000000000008152600401610130906109ec565b60405180910390fd5b60008081548092919061014b90610a3b565b91905055506040518060c0016040528060005481526020013373ffffffffffffffffffffffffffffffffffffffff1681526020018481526020018381526020018281526020016000151581525060016000805481526020019081526020016000206000820151816000015560208201518160010160006101000a81548173ffffffffffffffffffffffffffffffffffffffff021916908373ffffffffffffffffffffffffffffffffffffffff16021790555060408201518160020190816102129190610c8f565b5060608201518160030190816102289190610c8f565b506080820151816004015560a08201518160050160006101000a81548160ff0219169083151502179055509050507f4e3807e76e8c2a7b6547b6189eba5d3dc4fe2bc48c057e8ec545ec13be8063c560005433858460405161028d9493929190610d82565b60405180910390a1505050565b60005481565b60016020528060005260406000206000915090508060000154908060010160009054906101000a900473ffffffffffffffffffffffffffffffffffffffff16908060020180546102ef90610ab2565b80601f016020809104026020016040519081016040528092919081815260200182805461031b90610ab2565b80156103685780601f1061033d57610100808354040283529160200191610368565b820191906000526020600020905b81548152906001019060200180831161034b57829003601f168201915b50505050509080600301805461037d90610ab2565b80601f01602080910402602001604051908101604052809291908181526020018280546103a990610ab2565b80156103f65780601f106103cb576101008083540402835291602001916103f6565b820191906000526020600020905b8154815290600101906020018083116103d957829003601f168201915b5050505050908060040154908060050160009054906101000a900460ff16905086565b600060016000838152602001908152602001600020905060008211801561044257506000548211155b610481576040517f08c379a000000000000000000000000000000000000000000000000000000000815260040161047890610e1a565b60405180910390fd5b8060050160009054906101000a900460ff16156104d3576040517f08c379a00000000000000000000000000000000000000000000000000000000081526004016104ca90610e86565b60405180910390fd5b80600401543414610519576040517f08c379a000000000000000000000000000000000000000000000000000000000815260040161051090610ef2565b60405180910390fd5b8060010160009054906101000a900473ffffffffffffffffffffffffffffffffffffffff1673ffffffffffffffffffffffffffffffffffffffff166108fc349081150290604051600060405180830381858888f19350505050158015610583573d6000803e3d6000fd5b5060018160050160006101000a81548160ff0219169083151502179055507fa574c741071bb18f51fa88c17aeefec514bebf670ca22a3736fba6504ecbb763823383600401546040516105d893929190610f12565b60405180910390a15050565b6000604051905090565b600080fd5b600080fd5b600080fd5b600080fd5b6000601f19601f8301169050919050565b7f4e487b7100000000000000000000000000000000000000000000000000000000600052604160045260246000fd5b61064b82610602565b810181811067ffffffffffffffff8211171561066a57610669610613565b5b80604052505050565b600061067d6105e4565b90506106898282610642565b919050565b600067ffffffffffffffff8211156106a9576106a8610613565b5b6106b282610602565b9050602081019050919050565b82818337600083830152505050565b60006106e16106dc8461068e565b610673565b9050828152602081018484840111156106fd576106fc6105fd565b5b6107088482856106bf565b509392505050565b600082601f830112610725576107246105f8565b5b81356107358482602086016106ce565b91505092915050565b6000819050919050565b6107518161073e565b811461075c57600080fd5b50565b60008135905061076e81610748565b92915050565b60008060006060848603121561078d5761078c6105ee565b5b600084013567ffffffffffffffff8111156107ab576107aa6105f3565b5b6107b786828701610710565b935050602084013567ffffffffffffffff8111156107d8576107d76105f3565b5b6107e486828701610710565b92505060406107f58682870161075f565b9150509250925092565b6108088161073e565b82525050565b600060208201905061082360008301846107ff565b92915050565b60006020828403121561083f5761083e6105ee565b5b600061084d8482850161075f565b91505092915050565b600073ffffffffffffffffffffffffffffffffffffffff82169050919050565b600061088182610856565b9050919050565b61089181610876565b82525050565b600081519050919050565b600082825260208201905092915050565b60005b838110156108d15780820151818401526020810190506108b6565b60008484015250505050565b60006108e882610897565b6108f281856108a2565b93506109028185602086016108b3565b61090b81610602565b840191505092915050565b60008115159050919050565b61092b81610916565b82525050565b600060c08201905061094660008301896107ff565b6109536020830188610888565b818103604083015261096581876108dd565b9050818103606083015261097981866108dd565b905061098860808301856107ff565b61099560a0830184610922565b979650505050505050565b7f5072696365206d7573742062652067726561746572207468616e203000000000600082015250565b60006109d6601c836108a2565b91506109e1826109a0565b602082019050919050565b60006020820190508181036000830152610a05816109c9565b9050919050565b7f4e487b7100000000000000000000000000000000000000000000000000000000600052601160045260246000fd5b6000610a468261073e565b91507fffffffffffffffffffffffffffffffffffffffffffffffffffffffffffffffff8203610a7857610a77610a0c565b5b600182019050919050565b7f4e487b7100000000000000000000000000000000000000000000000000000000600052602260045260246000fd5b60006002820490506001821680610aca57607f821691505b602082108103610add57610adc610a83565b5b50919050565b60008190508160005260206000209050919050565b60006020601f8301049050919050565b600082821b905092915050565b600060088302610b457fffffffffffffffffffffffffffffffffffffffffffffffffffffffffffffffff82610b08565b610b4f8683610b08565b95508019841693508086168417925050509392505050565b6000819050919050565b6000610b8c610b87610b828461073e565b610b67565b61073e565b9050919050565b6000819050919050565b610ba683610b71565b610bba610bb282610b93565b848454610b15565b825550505050565b600090565b610bcf610bc2565b610bda818484610b9d565b505050565b5b81811015610bfe57610bf3600082610bc7565b600181019050610be0565b5050565b601f821115610c4357610c1481610ae3565b610c1d84610af8565b81016020851015610c2c578190505b610c40610c3885610af8565b830182610bdf565b50505b505050565b600082821c905092915050565b6000610c6660001984600802610c48565b1980831691505092915050565b6000610c7f8383610c55565b9150826002028217905092915050565b610c9882610897565b67ffffffffffffffff811115610cb157610cb0610613565b5b610cbb8254610ab2565b610cc6828285610c02565b600060209050601f831160018114610cf95760008415610ce7578287015190505b610cf18582610c73565b865550610d59565b601f198416610d0786610ae3565b60005b82811015610d2f57848901518255600182019150602085019450602081019050610d0a565b86831015610d4c5784890151610d48601f891682610c55565b8355505b6001600288020188555050505b505050505050565b6000610d6c82610856565b9050919050565b610d7c81610d61565b82525050565b6000608082019050610d9760008301876107ff565b610da46020830186610d73565b8181036040830152610db681856108dd565b9050610dc560608301846107ff565b95945050505050565b7f4974656d20646f6573206e6f7420657869737400000000000000000000000000600082015250565b6000610e046013836108a2565b9150610e0f82610dce565b602082019050919050565b60006020820190508181036000830152610e3381610df7565b9050919050565b7f4974656d20616c726561647920736f6c64000000000000000000000000000000600082015250565b6000610e706011836108a2565b9150610e7b82610e3a565b602082019050919050565b60006020820190508181036000830152610e9f81610e63565b9050919050565b7f496e636f7272656374204554482073656e740000000000000000000000000000600082015250565b6000610edc6012836108a2565b9150610ee782610ea6565b602082019050919050565b60006020820190508181036000830152610f0b81610ecf565b9050919050565b6000606082019050610f2760008301866107ff565b610f346020830185610d73565b610f4160408301846107ff565b94935050505056fea2646970667358221220d0b262987fb016237cf60bfd8b889c57834bff81b8da99ddea613cf74a55d75a64736f6c634300081c0033","opcodes":"PUSH1 0x80 PUSH1 0x40 MSTORE CALLVALUE DUP1 ISZERO PUSH1 0xF JUMPI PUSH1 0x0 DUP1 REVERT JUMPDEST POP PUSH2 0xF7F DUP1 PUSH2 0x1F PUSH1 0x0 CODECOPY PUSH1 0x0 RETURN INVALID PUSH1 0x80 PUSH1 0x40 MSTORE PUSH1 0x4 CALLDATASIZE LT PUSH2 0x3F JUMPI PUSH1 0x0 CALLDATALOAD PUSH1 0xE0 SHR DUP1 PUSH4 0x562021C EQ PUSH2 0x44 JUMPI DUP1 PUSH4 0x6BFB0D01 EQ PUSH2 0x6D JUMPI DUP1 PUSH4 0xBFB231D2 EQ PUSH2 0x98 JUMPI DUP1 PUSH4 0xE7FB74C7 EQ PUSH2 0xDA JUMPI JUMPDEST PUSH1 0x0 DUP1 REVERT JUMPDEST CALLVALUE DUP1 ISZERO PUSH2 0x50 JUMPI PUSH1 0x0 DUP1 REVERT JUMPDEST POP PUSH2 0x6B PUSH1 0x4 DUP1 CALLDATASIZE SUB DUP2 ADD SWAP1 PUSH2 0x66 SWAP2 SWAP1 PUSH2 0x774 JUMP JUMPDEST PUSH2 0xF6 JUMP JUMPDEST STOP JUMPDEST CALLVALUE DUP1 ISZERO PUSH2 0x79 JUMPI PUSH1 0x0 DUP1 REVERT JUMPDEST POP PUSH2 0x82 PUSH2 0x29A JUMP JUMPDEST PUSH1 0x40 MLOAD PUSH2 0x8F SWAP2 SWAP1 PUSH2 0x80E JUMP JUMPDEST PUSH1 0x40 MLOAD DUP1 SWAP2 SUB SWAP1 RETURN JUMPDEST CALLVALUE DUP1 ISZERO PUSH2 0xA4 JUMPI PUSH1 0x0 DUP1 REVERT JUMPDEST POP PUSH2 0xBF PUSH1 0x4 DUP1 CALLDATASIZE SUB DUP2 ADD SWAP1 PUSH2 0xBA SWAP2 SWAP1 PUSH2 0x829 JUMP JUMPDEST PUSH2 0x2A0 JUMP JUMPDEST PUSH1 0x40 MLOAD PUSH2 0xD1 SWAP7 SWAP6 SWAP5 SWAP4 SWAP3 SWAP2 SWAP1 PUSH2 0x931 JUMP JUMPDEST PUSH1 0x40 MLOAD DUP1 SWAP2 SUB SWAP1 RETURN JUMPDEST PUSH2 0xF4 PUSH1 0x4 DUP1 CALLDATASIZE SUB DUP2 ADD SWAP1 PUSH2 0xEF SWAP2 SWAP1 PUSH2 0x829 JUMP JUMPDEST PUSH2 0x419 JUMP JUMPDEST STOP JUMPDEST PUSH1 0x0 DUP2 GT PUSH2 0x139 JUMPI PUSH1 0x40 MLOAD PUSH32 0x8C379A000000000000000000000000000000000000000000000000000000000 DUP2 MSTORE PUSH1 0x4 ADD PUSH2 0x130 SWAP1 PUSH2 0x9EC JUMP JUMPDEST PUSH1 0x40 MLOAD DUP1 SWAP2 SUB SWAP1 REVERT JUMPDEST PUSH1 0x0 DUP1 DUP2 SLOAD DUP1 SWAP3 SWAP2 SWAP1 PUSH2 0x14B SWAP1 PUSH2 0xA3B JUMP JUMPDEST SWAP2 SWAP1 POP SSTORE POP PUSH1 0x40 MLOAD DUP1 PUSH1 0xC0 ADD PUSH1 0x40 MSTORE DUP1 PUSH1 0x0 SLOAD DUP2 MSTORE PUSH1 0x20 ADD CALLER PUSH20 0xFFFFFFFFFFFFFFFFFFFFFFFFFFFFFFFFFFFFFFFF AND DUP2 MSTORE PUSH1 0x20 ADD DUP5 DUP2 MSTORE PUSH1 0x20 ADD DUP4 DUP2 MSTORE PUSH1 0x20 ADD DUP3 DUP2 MSTORE PUSH1 0x20 ADD PUSH1 0x0 ISZERO ISZERO DUP2 MSTORE POP PUSH1 0x1 PUSH1 0x0 DUP1 SLOAD DUP2 MSTORE PUSH1 0x20 ADD SWAP1 DUP2 MSTORE PUSH1 0x20 ADD PUSH1 0x0 KECCAK256 PUSH1 0x0 DUP3 ADD MLOAD DUP2 PUSH1 0x0 ADD SSTORE PUSH1 0x20 DUP3 ADD MLOAD DUP2 PUSH1 0x1 ADD PUSH1 0x0 PUSH2 0x100 EXP DUP2 SLOAD DUP2 PUSH20 0xFFFFFFFFFFFFFFFFFFFFFFFFFFFFFFFFFFFFFFFF MUL NOT AND SWAP1 DUP4 PUSH20 0xFFFFFFFFFFFFFFFFFFFFFFFFFFFFFFFFFFFFFFFF AND MUL OR SWAP1 SSTORE POP PUSH1 0x40 DUP3 ADD MLOAD DUP2 PUSH1 0x2 ADD SWAP1 DUP2 PUSH2 0x212 SWAP2 SWAP1 PUSH2 0xC8F JUMP JUMPDEST POP PUSH1 0x60 DUP3 ADD MLOAD DUP2 PUSH1 0x3 ADD SWAP1 DUP2 PUSH2 0x228 SWAP2 SWAP1 PUSH2 0xC8F JUMP JUMPDEST POP PUSH1 0x80 DUP3 ADD MLOAD DUP2 PUSH1 0x4 ADD SSTORE PUSH1 0xA0 DUP3 ADD MLOAD DUP2 PUSH1 0x5 ADD PUSH1 0x0 PUSH2 0x100 EXP DUP2 SLOAD DUP2 PUSH1 0xFF MUL NOT AND SWAP1 DUP4 ISZERO ISZERO MUL OR SWAP1 SSTORE POP SWAP1 POP POP PUSH32 0x4E3807E76E8C2A7B6547B6189EBA5D3DC4FE2BC48C057E8EC545EC13BE8063C5 PUSH1 0x0 SLOAD CALLER DUP6 DUP5 PUSH1 0x40 MLOAD PUSH2 0x28D SWAP5 SWAP4 SWAP3 SWAP2 SWAP1 PUSH2 0xD82 JUMP JUMPDEST PUSH1 0x40 MLOAD DUP1 SWAP2 SUB SWAP1 LOG1 POP POP POP JUMP JUMPDEST PUSH1 0x0 SLOAD DUP2 JUMP JUMPDEST PUSH1 0x1 PUSH1 0x20 MSTORE DUP1 PUSH1 0x0 MSTORE PUSH1 0x40 PUSH1 0x0 KECCAK256 PUSH1 0x0 SWAP2 POP SWAP1 POP DUP1 PUSH1 0x0 ADD SLOAD SWAP1 DUP1 PUSH1 0x1 ADD PUSH1 0x0 SWAP1 SLOAD SWAP1 PUSH2 0x100 EXP SWAP1 DIV PUSH20 0xFFFFFFFFFFFFFFFFFFFFFFFFFFFFFFFFFFFFFFFF AND SWAP1 DUP1 PUSH1 0x2 ADD DUP1 SLOAD PUSH2 0x2EF SWAP1 PUSH2 0xAB2 JUMP JUMPDEST DUP1 PUSH1 0x1F ADD PUSH1 0x20 DUP1 SWAP2 DIV MUL PUSH1 0x20 ADD PUSH1 0x40 MLOAD SWAP1 DUP2 ADD PUSH1 0x40 MSTORE DUP1 SWAP3 SWAP2 SWAP1 DUP2 DUP2 MSTORE PUSH1 0x20 ADD DUP3 DUP1 SLOAD PUSH2 0x31B SWAP1 PUSH2 0xAB2 JUMP JUMPDEST DUP1 ISZERO PUSH2 0x368 JUMPI DUP1 PUSH1 0x1F LT PUSH2 0x33D JUMPI PUSH2 0x100 DUP1 DUP4 SLOAD DIV MUL DUP4 MSTORE SWAP2 PUSH1 0x20 ADD SWAP2 PUSH2 0x368 JUMP JUMPDEST DUP3 ADD SWAP2 SWAP1 PUSH1 0x0 MSTORE PUSH1 0x20 PUSH1 0x0 KECCAK256 SWAP1 JUMPDEST DUP2 SLOAD DUP2 MSTORE SWAP1 PUSH1 0x1 ADD SWAP1 PUSH1 0x20 ADD DUP1 DUP4 GT PUSH2 0x34B JUMPI DUP3 SWAP1 SUB PUSH1 0x1F AND DUP3 ADD SWAP2 JUMPDEST POP POP POP POP POP SWAP1 DUP1 PUSH1 0x3 ADD DUP1 SLOAD PUSH2 0x37D SWAP1 PUSH2 0xAB2 JUMP JUMPDEST DUP1 PUSH1 0x1F ADD PUSH1 0x20 DUP1 SWAP2 DIV MUL PUSH1 0x20 ADD PUSH1 0x40 MLOAD SWAP1 DUP2 ADD PUSH1 0x40 MSTORE DUP1 SWAP3 SWAP2 SWAP1 DUP2 DUP2 MSTORE PUSH1 0x20 ADD DUP3 DUP1 SLOAD PUSH2 0x3A9 SWAP1 PUSH2 0xAB2 JUMP JUMPDEST DUP1 ISZERO PUSH2 0x3F6 JUMPI DUP1 PUSH1 0x1F LT PUSH2 0x3CB JUMPI PUSH2 0x100 DUP1 DUP4 SLOAD DIV MUL DUP4 MSTORE SWAP2 PUSH1 0x20 ADD SWAP2 PUSH2 0x3F6 JUMP JUMPDEST DUP3 ADD SWAP2 SWAP1 PUSH1 0x0 MSTORE PUSH1 0x20 PUSH1 0x0 KECCAK256 SWAP1 JUMPDEST DUP2 SLOAD DUP2 MSTORE SWAP1 PUSH1 0x1 ADD SWAP1 PUSH1 0x20 ADD DUP1 DUP4 GT PUSH2 0x3D9 JUMPI DUP3 SWAP1 SUB PUSH1 0x1F AND DUP3 ADD SWAP2 JUMPDEST POP POP POP POP POP SWAP1 DUP1 PUSH1 0x4 ADD SLOAD SWAP1 DUP1 PUSH1 0x5 ADD PUSH1 0x0 SWAP1 SLOAD SWAP1 PUSH2 0x100 EXP SWAP1 DIV PUSH1 0xFF AND SWAP1 POP DUP7 JUMP JUMPDEST PUSH1 0x0 PUSH1 0x1 PUSH1 0x0 DUP4 DUP2 MSTORE PUSH1 0x20 ADD SWAP1 DUP2 MSTORE PUSH1 0x20 ADD PUSH1 0x0 KECCAK256 SWAP1 POP PUSH1 0x0 DUP3 GT DUP1 ISZERO PUSH2 0x442 JUMPI POP PUSH1 0x0 SLOAD DUP3 GT ISZERO JUMPDEST PUSH2 0x481 JUMPI PUSH1 0x40 MLOAD PUSH32 0x8C379A000000000000000000000000000000000000000000000000000000000 DUP2 MSTORE PUSH1 0x4 ADD PUSH2 0x478 SWAP1 PUSH2 0xE1A JUMP JUMPDEST PUSH1 0x40 MLOAD DUP1 SWAP2 SUB SWAP1 REVERT JUMPDEST DUP1 PUSH1 0x5 ADD PUSH1 0x0 SWAP1 SLOAD SWAP1 PUSH2 0x100 EXP SWAP1 DIV PUSH1 0xFF AND ISZERO PUSH2 0x4D3 JUMPI PUSH1 0x40 MLOAD PUSH32 0x8C379A000000000000000000000000000000000000000000000000000000000 DUP2 MSTORE PUSH1 0x4 ADD PUSH2 0x4CA SWAP1 PUSH2 0xE86 JUMP JUMPDEST PUSH1 0x40 MLOAD DUP1 SWAP2 SUB SWAP1 REVERT JUMPDEST DUP1 PUSH1 0x4 ADD SLOAD CALLVALUE EQ PUSH2 0x519 JUMPI PUSH1 0x40 MLOAD PUSH32 0x8C379A000000000000000000000000000000000000000000000000000000000 DUP2 MSTORE PUSH1 0x4 ADD PUSH2 0x510 SWAP1 PUSH2 0xEF2 JUMP JUMPDEST PUSH1 0x40 MLOAD DUP1 SWAP2 SUB SWAP1 REVERT JUMPDEST DUP1 PUSH1 0x1 ADD PUSH1 0x0 SWAP1 SLOAD SWAP1 PUSH2 0x100 EXP SWAP1 DIV PUSH20 0xFFFFFFFFFFFFFFFFFFFFFFFFFFFFFFFFFFFFFFFF AND PUSH20 0xFFFFFFFFFFFFFFFFFFFFFFFFFFFFFFFFFFFFFFFF AND PUSH2 0x8FC CALLVALUE SWAP1 DUP2 ISZERO MUL SWAP1 PUSH1 0x40 MLOAD PUSH1 0x0 PUSH1 0x40 MLOAD DUP1 DUP4 SUB DUP2 DUP6 DUP9 DUP9 CALL SWAP4 POP POP POP POP ISZERO DUP1 ISZERO PUSH2 0x583 JUMPI RETURNDATASIZE PUSH1 0x0 DUP1 RETURNDATACOPY RETURNDATASIZE PUSH1 0x0 REVERT JUMPDEST POP PUSH1 0x1 DUP2 PUSH1 0x5 ADD PUSH1 0x0 PUSH2 0x100 EXP DUP2 SLOAD DUP2 PUSH1 0xFF MUL NOT AND SWAP1 DUP4 ISZERO ISZERO MUL OR SWAP1 SSTORE POP PUSH32 0xA574C741071BB18F51FA88C17AEEFEC514BEBF670CA22A3736FBA6504ECBB763 DUP3 CALLER DUP4 PUSH1 0x4 ADD SLOAD PUSH1 0x40 MLOAD PUSH2 0x5D8 SWAP4 SWAP3 SWAP2 SWAP1 PUSH2 0xF12 JUMP JUMPDEST PUSH1 0x40 MLOAD DUP1 SWAP2 SUB SWAP1 LOG1 POP POP JUMP JUMPDEST PUSH1 0x0 PUSH1 0x40 MLOAD SWAP1 POP SWAP1 JUMP JUMPDEST PUSH1 0x0 DUP1 REVERT JUMPDEST PUSH1 0x0 DUP1 REVERT JUMPDEST PUSH1 0x0 DUP1 REVERT JUMPDEST PUSH1 0x0 DUP1 REVERT JUMPDEST PUSH1 0x0 PUSH1 0x1F NOT PUSH1 0x1F DUP4 ADD AND SWAP1 POP SWAP2 SWAP1 POP JUMP JUMPDEST PUSH32 0x4E487B7100000000000000000000000000000000000000000000000000000000 PUSH1 0x0 MSTORE PUSH1 0x41 PUSH1 0x4 MSTORE PUSH1 0x24 PUSH1 0x0 REVERT JUMPDEST PUSH2 0x64B DUP3 PUSH2 0x602 JUMP JUMPDEST DUP2 ADD DUP2 DUP2 LT PUSH8 0xFFFFFFFFFFFFFFFF DUP3 GT OR ISZERO PUSH2 0x66A JUMPI PUSH2 0x669 PUSH2 0x613 JUMP JUMPDEST JUMPDEST DUP1 PUSH1 0x40 MSTORE POP POP POP JUMP JUMPDEST PUSH1 0x0 PUSH2 0x67D PUSH2 0x5E4 JUMP JUMPDEST SWAP1 POP PUSH2 0x689 DUP3 DUP3 PUSH2 0x642 JUMP JUMPDEST SWAP2 SWAP1 POP JUMP JUMPDEST PUSH1 0x0 PUSH8 0xFFFFFFFFFFFFFFFF DUP3 GT ISZERO PUSH2 0x6A9 JUMPI PUSH2 0x6A8 PUSH2 0x613 JUMP JUMPDEST JUMPDEST PUSH2 0x6B2 DUP3 PUSH2 0x602 JUMP JUMPDEST SWAP1 POP PUSH1 0x20 DUP2 ADD SWAP1 POP SWAP2 SWAP1 POP JUMP JUMPDEST DUP3 DUP2 DUP4 CALLDATACOPY PUSH1 0x0 DUP4 DUP4 ADD MSTORE POP POP POP JUMP JUMPDEST PUSH1 0x0 PUSH2 0x6E1 PUSH2 0x6DC DUP5 PUSH2 0x68E JUMP JUMPDEST PUSH2 0x673 JUMP JUMPDEST SWAP1 POP DUP3 DUP2 MSTORE PUSH1 0x20 DUP2 ADD DUP5 DUP5 DUP5 ADD GT ISZERO PUSH2 0x6FD JUMPI PUSH2 0x6FC PUSH2 0x5FD JUMP JUMPDEST JUMPDEST PUSH2 0x708 DUP5 DUP3 DUP6 PUSH2 0x6BF JUMP JUMPDEST POP SWAP4 SWAP3 POP POP POP JUMP JUMPDEST PUSH1 0x0 DUP3 PUSH1 0x1F DUP4 ADD SLT PUSH2 0x725 JUMPI PUSH2 0x724 PUSH2 0x5F8 JUMP JUMPDEST JUMPDEST DUP2 CALLDATALOAD PUSH2 0x735 DUP5 DUP3 PUSH1 0x20 DUP7 ADD PUSH2 0x6CE JUMP JUMPDEST SWAP2 POP POP SWAP3 SWAP2 POP POP JUMP JUMPDEST PUSH1 0x0 DUP2 SWAP1 POP SWAP2 SWAP1 POP JUMP JUMPDEST PUSH2 0x751 DUP2 PUSH2 0x73E JUMP JUMPDEST DUP2 EQ PUSH2 0x75C JUMPI PUSH1 0x0 DUP1 REVERT JUMPDEST POP JUMP JUMPDEST PUSH1 0x0 DUP2 CALLDATALOAD SWAP1 POP PUSH2 0x76E DUP2 PUSH2 0x748 JUMP JUMPDEST SWAP3 SWAP2 POP POP JUMP JUMPDEST PUSH1 0x0 DUP1 PUSH1 0x0 PUSH1 0x60 DUP5 DUP7 SUB SLT ISZERO PUSH2 0x78D JUMPI PUSH2 0x78C PUSH2 0x5EE JUMP JUMPDEST JUMPDEST PUSH1 0x0 DUP5 ADD CALLDATALOAD PUSH8 0xFFFFFFFFFFFFFFFF DUP2 GT ISZERO PUSH2 0x7AB JUMPI PUSH2 0x7AA PUSH2 0x5F3 JUMP JUMPDEST JUMPDEST PUSH2 0x7B7 DUP7 DUP3 DUP8 ADD PUSH2 0x710 JUMP JUMPDEST SWAP4 POP POP PUSH1 0x20 DUP5 ADD CALLDATALOAD PUSH8 0xFFFFFFFFFFFFFFFF DUP2 GT ISZERO PUSH2 0x7D8 JUMPI PUSH2 0x7D7 PUSH2 0x5F3 JUMP JUMPDEST JUMPDEST PUSH2 0x7E4 DUP7 DUP3 DUP8 ADD PUSH2 0x710 JUMP JUMPDEST SWAP3 POP POP PUSH1 0x40 PUSH2 0x7F5 DUP7 DUP3 DUP8 ADD PUSH2 0x75F JUMP JUMPDEST SWAP2 POP POP SWAP3 POP SWAP3 POP SWAP3 JUMP JUMPDEST PUSH2 0x808 DUP2 PUSH2 0x73E JUMP JUMPDEST DUP3 MSTORE POP POP JUMP JUMPDEST PUSH1 0x0 PUSH1 0x20 DUP3 ADD SWAP1 POP PUSH2 0x823 PUSH1 0x0 DUP4 ADD DUP5 PUSH2 0x7FF JUMP JUMPDEST SWAP3 SWAP2 POP POP JUMP JUMPDEST PUSH1 0x0 PUSH1 0x20 DUP3 DUP5 SUB SLT ISZERO PUSH2 0x83F JUMPI PUSH2 0x83E PUSH2 0x5EE JUMP JUMPDEST JUMPDEST PUSH1 0x0 PUSH2 0x84D DUP5 DUP3 DUP6 ADD PUSH2 0x75F JUMP JUMPDEST SWAP2 POP POP SWAP3 SWAP2 POP POP JUMP JUMPDEST PUSH1 0x0 PUSH20 0xFFFFFFFFFFFFFFFFFFFFFFFFFFFFFFFFFFFFFFFF DUP3 AND SWAP1 POP SWAP2 SWAP1 POP JUMP JUMPDEST PUSH1 0x0 PUSH2 0x881 DUP3 PUSH2 0x856 JUMP JUMPDEST SWAP1 POP SWAP2 SWAP1 POP JUMP JUMPDEST PUSH2 0x891 DUP2 PUSH2 0x876 JUMP JUMPDEST DUP3 MSTORE POP POP JUMP JUMPDEST PUSH1 0x0 DUP2 MLOAD SWAP1 POP SWAP2 SWAP1 POP JUMP JUMPDEST PUSH1 0x0 DUP3 DUP3 MSTORE PUSH1 0x20 DUP3 ADD SWAP1 POP SWAP3 SWAP2 POP POP JUMP JUMPDEST PUSH1 0x0 JUMPDEST DUP4 DUP2 LT ISZERO PUSH2 0x8D1 JUMPI DUP1 DUP3 ADD MLOAD DUP2 DUP5 ADD MSTORE PUSH1 0x20 DUP2 ADD SWAP1 POP PUSH2 0x8B6 JUMP JUMPDEST PUSH1 0x0 DUP5 DUP5 ADD MSTORE POP POP POP POP JUMP JUMPDEST PUSH1 0x0 PUSH2 0x8E8 DUP3 PUSH2 0x897 JUMP JUMPDEST PUSH2 0x8F2 DUP2 DUP6 PUSH2 0x8A2 JUMP JUMPDEST SWAP4 POP PUSH2 0x902 DUP2 DUP6 PUSH1 0x20 DUP7 ADD PUSH2 0x8B3 JUMP JUMPDEST PUSH2 0x90B DUP2 PUSH2 0x602 JUMP JUMPDEST DUP5 ADD SWAP2 POP POP SWAP3 SWAP2 POP POP JUMP JUMPDEST PUSH1 0x0 DUP2 ISZERO ISZERO SWAP1 POP SWAP2 SWAP1 POP JUMP JUMPDEST PUSH2 0x92B DUP2 PUSH2 0x916 JUMP JUMPDEST DUP3 MSTORE POP POP JUMP JUMPDEST PUSH1 0x0 PUSH1 0xC0 DUP3 ADD SWAP1 POP PUSH2 0x946 PUSH1 0x0 DUP4 ADD DUP10 PUSH2 0x7FF JUMP JUMPDEST PUSH2 0x953 PUSH1 0x20 DUP4 ADD DUP9 PUSH2 0x888 JUMP JUMPDEST DUP2 DUP2 SUB PUSH1 0x40 DUP4 ADD MSTORE PUSH2 0x965 DUP2 DUP8 PUSH2 0x8DD JUMP JUMPDEST SWAP1 POP DUP2 DUP2 SUB PUSH1 0x60 DUP4 ADD MSTORE PUSH2 0x979 DUP2 DUP7 PUSH2 0x8DD JUMP JUMPDEST SWAP1 POP PUSH2 0x988 PUSH1 0x80 DUP4 ADD DUP6 PUSH2 0x7FF JUMP JUMPDEST PUSH2 0x995 PUSH1 0xA0 DUP4 ADD DUP5 PUSH2 0x922 JUMP JUMPDEST SWAP8 SWAP7 POP POP POP POP POP POP POP JUMP JUMPDEST PUSH32 0x5072696365206D7573742062652067726561746572207468616E203000000000 PUSH1 0x0 DUP3 ADD MSTORE POP JUMP JUMPDEST PUSH1 0x0 PUSH2 0x9D6 PUSH1 0x1C DUP4 PUSH2 0x8A2 JUMP JUMPDEST SWAP2 POP PUSH2 0x9E1 DUP3 PUSH2 0x9A0 JUMP JUMPDEST PUSH1 0x20 DUP3 ADD SWAP1 POP SWAP2 SWAP1 POP JUMP JUMPDEST PUSH1 0x0 PUSH1 0x20 DUP3 ADD SWAP1 POP DUP2 DUP2 SUB PUSH1 0x0 DUP4 ADD MSTORE PUSH2 0xA05 DUP2 PUSH2 0x9C9 JUMP JUMPDEST SWAP1 POP SWAP2 SWAP1 POP JUMP JUMPDEST PUSH32 0x4E487B7100000000000000000000000000000000000000000000000000000000 PUSH1 0x0 MSTORE PUSH1 0x11 PUSH1 0x4 MSTORE PUSH1 0x24 PUSH1 0x0 REVERT JUMPDEST PUSH1 0x0 PUSH2 0xA46 DUP3 PUSH2 0x73E JUMP JUMPDEST SWAP2 POP PUSH32 0xFFFFFFFFFFFFFFFFFFFFFFFFFFFFFFFFFFFFFFFFFFFFFFFFFFFFFFFFFFFFFFFF DUP3 SUB PUSH2 0xA78 JUMPI PUSH2 0xA77 PUSH2 0xA0C JUMP JUMPDEST JUMPDEST PUSH1 0x1 DUP3 ADD SWAP1 POP SWAP2 SWAP1 POP JUMP JUMPDEST PUSH32 0x4E487B7100000000000000000000000000000000000000000000000000000000 PUSH1 0x0 MSTORE PUSH1 0x22 PUSH1 0x4 MSTORE PUSH1 0x24 PUSH1 0x0 REVERT JUMPDEST PUSH1 0x0 PUSH1 0x2 DUP3 DIV SWAP1 POP PUSH1 0x1 DUP3 AND DUP1 PUSH2 0xACA JUMPI PUSH1 0x7F DUP3 AND SWAP2 POP JUMPDEST PUSH1 0x20 DUP3 LT DUP2 SUB PUSH2 0xADD JUMPI PUSH2 0xADC PUSH2 0xA83 JUMP JUMPDEST JUMPDEST POP SWAP2 SWAP1 POP JUMP JUMPDEST PUSH1 0x0 DUP2 SWAP1 POP DUP2 PUSH1 0x0 MSTORE PUSH1 0x20 PUSH1 0x0 KECCAK256 SWAP1 POP SWAP2 SWAP1 POP JUMP JUMPDEST PUSH1 0x0 PUSH1 0x20 PUSH1 0x1F DUP4 ADD DIV SWAP1 POP SWAP2 SWAP1 POP JUMP JUMPDEST PUSH1 0x0 DUP3 DUP3 SHL SWAP1 POP SWAP3 SWAP2 POP POP JUMP JUMPDEST PUSH1 0x0 PUSH1 0x8 DUP4 MUL PUSH2 0xB45 PUSH32 0xFFFFFFFFFFFFFFFFFFFFFFFFFFFFFFFFFFFFFFFFFFFFFFFFFFFFFFFFFFFFFFFF DUP3 PUSH2 0xB08 JUMP JUMPDEST PUSH2 0xB4F DUP7 DUP4 PUSH2 0xB08 JUMP JUMPDEST SWAP6 POP DUP1 NOT DUP5 AND SWAP4 POP DUP1 DUP7 AND DUP5 OR SWAP3 POP POP POP SWAP4 SWAP3 POP POP POP JUMP JUMPDEST PUSH1 0x0 DUP2 SWAP1 POP SWAP2 SWAP1 POP JUMP JUMPDEST PUSH1 0x0 PUSH2 0xB8C PUSH2 0xB87 PUSH2 0xB82 DUP5 PUSH2 0x73E JUMP JUMPDEST PUSH2 0xB67 JUMP JUMPDEST PUSH2 0x73E JUMP JUMPDEST SWAP1 POP SWAP2 SWAP1 POP JUMP JUMPDEST PUSH1 0x0 DUP2 SWAP1 POP SWAP2 SWAP1 POP JUMP JUMPDEST PUSH2 0xBA6 DUP4 PUSH2 0xB71 JUMP JUMPDEST PUSH2 0xBBA PUSH2 0xBB2 DUP3 PUSH2 0xB93 JUMP JUMPDEST DUP5 DUP5 SLOAD PUSH2 0xB15 JUMP JUMPDEST DUP3 SSTORE POP POP POP POP JUMP JUMPDEST PUSH1 0x0 SWAP1 JUMP JUMPDEST PUSH2 0xBCF PUSH2 0xBC2 JUMP JUMPDEST PUSH2 0xBDA DUP2 DUP5 DUP5 PUSH2 0xB9D JUMP JUMPDEST POP POP POP JUMP JUMPDEST JUMPDEST DUP2 DUP2 LT ISZERO PUSH2 0xBFE JUMPI PUSH2 0xBF3 PUSH1 0x0 DUP3 PUSH2 0xBC7 JUMP JUMPDEST PUSH1 0x1 DUP2 ADD SWAP1 POP PUSH2 0xBE0 JUMP JUMPDEST POP POP JUMP JUMPDEST PUSH1 0x1F DUP3 GT ISZERO PUSH2 0xC43 JUMPI PUSH2 0xC14 DUP2 PUSH2 0xAE3 JUMP JUMPDEST PUSH2 0xC1D DUP5 PUSH2 0xAF8 JUMP JUMPDEST DUP2 ADD PUSH1 0x20 DUP6 LT ISZERO PUSH2 0xC2C JUMPI DUP2 SWAP1 POP JUMPDEST PUSH2 0xC40 PUSH2 0xC38 DUP6 PUSH2 0xAF8 JUMP JUMPDEST DUP4 ADD DUP3 PUSH2 0xBDF JUMP JUMPDEST POP POP JUMPDEST POP POP POP JUMP JUMPDEST PUSH1 0x0 DUP3 DUP3 SHR SWAP1 POP SWAP3 SWAP2 POP POP JUMP JUMPDEST PUSH1 0x0 PUSH2 0xC66 PUSH1 0x0 NOT DUP5 PUSH1 0x8 MUL PUSH2 0xC48 JUMP JUMPDEST NOT DUP1 DUP4 AND SWAP2 POP POP SWAP3 SWAP2 POP POP JUMP JUMPDEST PUSH1 0x0 PUSH2 0xC7F DUP4 DUP4 PUSH2 0xC55 JUMP JUMPDEST SWAP2 POP DUP3 PUSH1 0x2 MUL DUP3 OR SWAP1 POP SWAP3 SWAP2 POP POP JUMP JUMPDEST PUSH2 0xC98 DUP3 PUSH2 0x897 JUMP JUMPDEST PUSH8 0xFFFFFFFFFFFFFFFF DUP2 GT ISZERO PUSH2 0xCB1 JUMPI PUSH2 0xCB0 PUSH2 0x613 JUMP JUMPDEST JUMPDEST PUSH2 0xCBB DUP3 SLOAD PUSH2 0xAB2 JUMP JUMPDEST PUSH2 0xCC6 DUP3 DUP3 DUP6 PUSH2 0xC02 JUMP JUMPDEST PUSH1 0x0 PUSH1 0x20 SWAP1 POP PUSH1 0x1F DUP4 GT PUSH1 0x1 DUP2 EQ PUSH2 0xCF9 JUMPI PUSH1 0x0 DUP5 ISZERO PUSH2 0xCE7 JUMPI DUP3 DUP8 ADD MLOAD SWAP1 POP JUMPDEST PUSH2 0xCF1 DUP6 DUP3 PUSH2 0xC73 JUMP JUMPDEST DUP7 SSTORE POP PUSH2 0xD59 JUMP JUMPDEST PUSH1 0x1F NOT DUP5 AND PUSH2 0xD07 DUP7 PUSH2 0xAE3 JUMP JUMPDEST PUSH1 0x0 JUMPDEST DUP3 DUP2 LT ISZERO PUSH2 0xD2F JUMPI DUP5 DUP10 ADD MLOAD DUP3 SSTORE PUSH1 0x1 DUP3 ADD SWAP2 POP PUSH1 0x20 DUP6 ADD SWAP5 POP PUSH1 0x20 DUP2 ADD SWAP1 POP PUSH2 0xD0A JUMP JUMPDEST DUP7 DUP4 LT ISZERO PUSH2 0xD4C JUMPI DUP5 DUP10 ADD MLOAD PUSH2 0xD48 PUSH1 0x1F DUP10 AND DUP3 PUSH2 0xC55 JUMP JUMPDEST DUP4 SSTORE POP JUMPDEST PUSH1 0x1 PUSH1 0x2 DUP9 MUL ADD DUP9 SSTORE POP POP POP JUMPDEST POP POP POP POP POP POP JUMP JUMPDEST PUSH1 0x0 PUSH2 0xD6C DUP3 PUSH2 0x856 JUMP JUMPDEST SWAP1 POP SWAP2 SWAP1 POP JUMP JUMPDEST PUSH2 0xD7C DUP2 PUSH2 0xD61 JUMP JUMPDEST DUP3 MSTORE POP POP JUMP JUMPDEST PUSH1 0x0 PUSH1 0x80 DUP3 ADD SWAP1 POP PUSH2 0xD97 PUSH1 0x0 DUP4 ADD DUP8 PUSH2 0x7FF JUMP JUMPDEST PUSH2 0xDA4 PUSH1 0x20 DUP4 ADD DUP7 PUSH2 0xD73 JUMP JUMPDEST DUP2 DUP2 SUB PUSH1 0x40 DUP4 ADD MSTORE PUSH2 0xDB6 DUP2 DUP6 PUSH2 0x8DD JUMP JUMPDEST SWAP1 POP PUSH2 0xDC5 PUSH1 0x60 DUP4 ADD DUP5 PUSH2 0x7FF JUMP JUMPDEST SWAP6 SWAP5 POP POP POP POP POP JUMP JUMPDEST PUSH32 0x4974656D20646F6573206E6F7420657869737400000000000000000000000000 PUSH1 0x0 DUP3 ADD MSTORE POP JUMP JUMPDEST PUSH1 0x0 PUSH2 0xE04 PUSH1 0x13 DUP4 PUSH2 0x8A2 JUMP JUMPDEST SWAP2 POP PUSH2 0xE0F DUP3 PUSH2 0xDCE JUMP JUMPDEST PUSH1 0x20 DUP3 ADD SWAP1 POP SWAP2 SWAP1 POP JUMP JUMPDEST PUSH1 0x0 PUSH1 0x20 DUP3 ADD SWAP1 POP DUP2 DUP2 SUB PUSH1 0x0 DUP4 ADD MSTORE PUSH2 0xE33 DUP2 PUSH2 0xDF7 JUMP JUMPDEST SWAP1 POP SWAP2 SWAP1 POP JUMP JUMPDEST PUSH32 0x4974656D20616C726561647920736F6C64000000000000000000000000000000 PUSH1 0x0 DUP3 ADD MSTORE POP JUMP JUMPDEST PUSH1 0x0 PUSH2 0xE70 PUSH1 0x11 DUP4 PUSH2 0x8A2 JUMP JUMPDEST SWAP2 POP PUSH2 0xE7B DUP3 PUSH2 0xE3A JUMP JUMPDEST PUSH1 0x20 DUP3 ADD SWAP1 POP SWAP2 SWAP1 POP JUMP JUMPDEST PUSH1 0x0 PUSH1 0x20 DUP3 ADD SWAP1 POP DUP2 DUP2 SUB PUSH1 0x0 DUP4 ADD MSTORE PUSH2 0xE9F DUP2 PUSH2 0xE63 JUMP JUMPDEST SWAP1 POP SWAP2 SWAP1 POP JUMP JUMPDEST PUSH32 0x496E636F7272656374204554482073656E740000000000000000000000000000 PUSH1 0x0 DUP3 ADD MSTORE POP JUMP JUMPDEST PUSH1 0x0 PUSH2 0xEDC PUSH1 0x12 DUP4 PUSH2 0x8A2 JUMP JUMPDEST SWAP2 POP PUSH2 0xEE7 DUP3 PUSH2 0xEA6 JUMP JUMPDEST PUSH1 0x20 DUP3 ADD SWAP1 POP SWAP2 SWAP1 POP JUMP JUMPDEST PUSH1 0x0 PUSH1 0x20 DUP3 ADD SWAP1 POP DUP2 DUP2 SUB PUSH1 0x0 DUP4 ADD MSTORE PUSH2 0xF0B DUP2 PUSH2 0xECF JUMP JUMPDEST SWAP1 POP SWAP2 SWAP1 POP JUMP JUMPDEST PUSH1 0x0 PUSH1 0x60 DUP3 ADD SWAP1 POP PUSH2 0xF27 PUSH1 0x0 DUP4 ADD DUP7 PUSH2 0x7FF JUMP JUMPDEST PUSH2 0xF34 PUSH1 0x20 DUP4 ADD DUP6 PUSH2 0xD73 JUMP JUMPDEST PUSH2 0xF41 PUSH1 0x40 DUP4 ADD DUP5 PUSH2 0x7FF JUMP JUMPDEST SWAP5 SWAP4 POP POP POP POP JUMP INVALID LOG2 PUSH5 0x6970667358 0x22 SLT KECCAK256 0xD0 0xB2 PUSH3 0x987FB0 AND 0x23 PUSH29 0xF60BFD8B889C57834BFF81B8DA99DDEA613CF74A55D75A64736F6C6343 STOP ADDMOD SHR STOP CALLER "},"methodIdentifiers":{"buyItem(uint256)":"e7fb74c7","itemCount()":"6bfb0d01","items(uint256)":"bfb231d2","listItem(string,string,uint256)":"0562021c"}}}}}