{
  "_format": "hh-sol-artifact-1",
  "contractName": "Marketplace",
  "sourceName": "contracts/Marketplace.sol",
  "abi": [
    {
      "anonymous": false,
      "inputs": [
        {
          "indexed": false,
          "internalType": "uint256",
          "name": "id",
          "type": "uint256"
        },
        {
          "indexed": false,
          "internalType": "address",
          "name": "seller",
          "type": "address"
        },
        {
          "indexed": false,
          "internalType": "string",
          "name": "name",
          "type": "string"
        },
        {
          "indexed": false,
          "internalType": "uint256",
          "name": "price",
          "type": "uint256"
        }
      ],
      "name": "ItemListed",
      "type": "event"
    },
    {
      "anonymous": false,
      "inputs": [
        {
          "indexed": false,
          "internalType": "uint256",
          "name": "id",
          "type": "uint256"
        },
        {
          "indexed": false,
          "internalType": "address",
          "name": "buyer",
          "type": "address"
        },
        {
          "indexed": false,
          "internalType": "uint256",
          "name": "price",
          "type": "uint256"
        }
      ],
      "name": "ItemSold",
      "type": "event"
    },
    {
      "anonymous": false,
      "inputs": [],
      "name": "ItemsCleared",
      "type": "event"
    },
    {
      "inputs": [
        {
          "internalType": "uint256",
          "name": "_id",
          "type": "uint256"
        }
      ],
      "name": "buyItem",
      "outputs": [],
      "stateMutability": "payable",
      "type": "function"
    },
    {
      "inputs": [],
      "name": "clearItems",
      "outputs": [],
      "stateMutability": "nonpayable",
      "type": "function"
    },
    {
      "inputs": [],
      "name": "itemCount",
      "outputs": [
        {
          "internalType": "uint256",
          "name": "",
          "type": "uint256"
        }
      ],
      "stateMutability": "view",
      "type": "function"
    },
    {
      "inputs": [
        {
          "internalType": "uint256",
          "name": "",
          "type": "uint256"
        }
      ],
      "name": "items",
      "outputs": [
        {
          "internalType": "uint256",
          "name": "id",
          "type": "uint256"
        },
        {
          "internalType": "address payable",
          "name": "seller",
          "type": "address"
        },
        {
          "internalType": "string",
          "name": "name",
          "type": "string"
        },
        {
          "internalType": "string",
          "name": "description",
          "type": "string"
        },
        {
          "internalType": "uint256",
          "name": "price",
          "type": "uint256"
        },
        {
          "internalType": "bool",
          "name": "isSold",
          "type": "bool"
        }
      ],
      "stateMutability": "view",
      "type": "function"
    },
    {
      "inputs": [
        {
          "internalType": "string",
          "name": "_name",
          "type": "string"
        },
        {
          "internalType": "string",
          "name": "_description",
          "type": "string"
        },
        {
          "internalType": "uint256",
          "name": "_price",
          "type": "uint256"
        }
      ],
      "name": "listItem",
      "outputs": [],
      "stateMutability": "nonpayable",
      "type": "function"
    }
  ],
  "bytecode": "0x6080604052348015600f57600080fd5b506110d88061001f6000396000f3fe60806040526004361061004a5760003560e01c80630562021c1461004f5780636bfb0d0114610078578063ad9177ef146100a3578063bfb231d2146100ba578063e7fb74c7146100fc575b600080fd5b34801561005b57600080fd5b50610076600480360381019061007191906108cd565b610118565b005b34801561008457600080fd5b5061008d6102bc565b60405161009a9190610967565b60405180910390f35b3480156100af57600080fd5b506100b86102c2565b005b3480156100c657600080fd5b506100e160048036038101906100dc9190610982565b61039c565b6040516100f396959493929190610a8a565b60405180910390f35b61011660048036038101906101119190610982565b610515565b005b6000811161015b576040517f08c379a000000000000000000000000000000000000000000000000000000000815260040161015290610b45565b60405180910390fd5b60008081548092919061016d90610b94565b91905055506040518060c0016040528060005481526020013373ffffffffffffffffffffffffffffffffffffffff1681526020018481526020018381526020018281526020016000151581525060016000805481526020019081526020016000206000820151816000015560208201518160010160006101000a81548173ffffffffffffffffffffffffffffffffffffffff021916908373ffffffffffffffffffffffffffffffffffffffff16021790555060408201518160020190816102349190610de8565b50606082015181600301908161024a9190610de8565b506080820151816004015560a08201518160050160006101000a81548160ff0219169083151502179055509050507f4e3807e76e8c2a7b6547b6189eba5d3dc4fe2bc48c057e8ec545ec13be8063c56000543385846040516102af9493929190610edb565b60405180910390a1505050565b60005481565b6000600190505b600054811161036657600160008281526020019081526020016000206000808201600090556001820160006101000a81549073ffffffffffffffffffffffffffffffffffffffff021916905560028201600061032591906106e0565b60038201600061033591906106e0565b60048201600090556005820160006101000a81549060ff02191690555050808061035e90610b94565b9150506102c9565b50600080819055507f5514b6927c8df4b70d91f321acaccd772d1205dcb71a5a702248cc3afba8433b60405160405180910390a1565b60016020528060005260406000206000915090508060000154908060010160009054906101000a900473ffffffffffffffffffffffffffffffffffffffff16908060020180546103eb90610c0b565b80601f016020809104026020016040519081016040528092919081815260200182805461041790610c0b565b80156104645780601f1061043957610100808354040283529160200191610464565b820191906000526020600020905b81548152906001019060200180831161044757829003601f168201915b50505050509080600301805461047990610c0b565b80601f01602080910402602001604051908101604052809291908181526020018280546104a590610c0b565b80156104f25780601f106104c7576101008083540402835291602001916104f2565b820191906000526020600020905b8154815290600101906020018083116104d557829003601f168201915b5050505050908060040154908060050160009054906101000a900460ff16905086565b600060016000838152602001908152602001600020905060008211801561053e57506000548211155b61057d576040517f08c379a000000000000000000000000000000000000000000000000000000000815260040161057490610f73565b60405180910390fd5b8060050160009054906101000a900460ff16156105cf576040517f08c379a00000000000000000000000000000000000000000000000000000000081526004016105c690610fdf565b60405180910390fd5b80600401543414610615576040517f08c379a000000000000000000000000000000000000000000000000000000000815260040161060c9061104b565b60405180910390fd5b8060010160009054906101000a900473ffffffffffffffffffffffffffffffffffffffff1673ffffffffffffffffffffffffffffffffffffffff166108fc349081150290604051600060405180830381858888f1935050505015801561067f573d6000803e3d6000fd5b5060018160050160006101000a81548160ff0219169083151502179055507fa574c741071bb18f51fa88c17aeefec514bebf670ca22a3736fba6504ecbb763823383600401546040516106d49392919061106b565b60405180910390a15050565b5080546106ec90610c0b565b6000825580601f106106fe575061071d565b601f01602090049060005260206000209081019061071c9190610720565b5b50565b5b80821115610739576000816000905550600101610721565b5090565b6000604051905090565b600080fd5b600080fd5b600080fd5b600080fd5b6000601f19601f8301169050919050565b7f4e487b7100000000000000000000000000000000000000000000000000000000600052604160045260246000fd5b6107a48261075b565b810181811067ffffffffffffffff821117156107c3576107c261076c565b5b80604052505050565b60006107d661073d565b90506107e2828261079b565b919050565b600067ffffffffffffffff8211156108025761080161076c565b5b61080b8261075b565b9050602081019050919050565b82818337600083830152505050565b600061083a610835846107e7565b6107cc565b90508281526020810184848401111561085657610855610756565b5b610861848285610818565b509392505050565b600082601f83011261087e5761087d610751565b5b813561088e848260208601610827565b91505092915050565b6000819050919050565b6108aa81610897565b81146108b557600080fd5b50565b6000813590506108c7816108a1565b92915050565b6000806000606084860312156108e6576108e5610747565b5b600084013567ffffffffffffffff8111156109045761090361074c565b5b61091086828701610869565b935050602084013567ffffffffffffffff8111156109315761093061074c565b5b61093d86828701610869565b925050604061094e868287016108b8565b9150509250925092565b61096181610897565b82525050565b600060208201905061097c6000830184610958565b92915050565b60006020828403121561099857610997610747565b5b60006109a6848285016108b8565b91505092915050565b600073ffffffffffffffffffffffffffffffffffffffff82169050919050565b60006109da826109af565b9050919050565b6109ea816109cf565b82525050565b600081519050919050565b600082825260208201905092915050565b60005b83811015610a2a578082015181840152602081019050610a0f565b60008484015250505050565b6000610a41826109f0565b610a4b81856109fb565b9350610a5b818560208601610a0c565b610a648161075b565b840191505092915050565b60008115159050919050565b610a8481610a6f565b82525050565b600060c082019050610a9f6000830189610958565b610aac60208301886109e1565b8181036040830152610abe8187610a36565b90508181036060830152610ad28186610a36565b9050610ae16080830185610958565b610aee60a0830184610a7b565b979650505050505050565b7f5072696365206d7573742062652067726561746572207468616e203000000000600082015250565b6000610b2f601c836109fb565b9150610b3a82610af9565b602082019050919050565b60006020820190508181036000830152610b5e81610b22565b9050919050565b7f4e487b7100000000000000000000000000000000000000000000000000000000600052601160045260246000fd5b6000610b9f82610897565b91507fffffffffffffffffffffffffffffffffffffffffffffffffffffffffffffffff8203610bd157610bd0610b65565b5b600182019050919050565b7f4e487b7100000000000000000000000000000000000000000000000000000000600052602260045260246000fd5b60006002820490506001821680610c2357607f821691505b602082108103610c3657610c35610bdc565b5b50919050565b60008190508160005260206000209050919050565b60006020601f8301049050919050565b600082821b905092915050565b600060088302610c9e7fffffffffffffffffffffffffffffffffffffffffffffffffffffffffffffffff82610c61565b610ca88683610c61565b95508019841693508086168417925050509392505050565b6000819050919050565b6000610ce5610ce0610cdb84610897565b610cc0565b610897565b9050919050565b6000819050919050565b610cff83610cca565b610d13610d0b82610cec565b848454610c6e565b825550505050565b600090565b610d28610d1b565b610d33818484610cf6565b505050565b5b81811015610d5757610d4c600082610d20565b600181019050610d39565b5050565b601f821115610d9c57610d6d81610c3c565b610d7684610c51565b81016020851015610d85578190505b610d99610d9185610c51565b830182610d38565b50505b505050565b600082821c905092915050565b6000610dbf60001984600802610da1565b1980831691505092915050565b6000610dd88383610dae565b9150826002028217905092915050565b610df1826109f0565b67ffffffffffffffff811115610e0a57610e0961076c565b5b610e148254610c0b565b610e1f828285610d5b565b600060209050601f831160018114610e525760008415610e40578287015190505b610e4a8582610dcc565b865550610eb2565b601f198416610e6086610c3c565b60005b82811015610e8857848901518255600182019150602085019450602081019050610e63565b86831015610ea55784890151610ea1601f891682610dae565b8355505b6001600288020188555050505b505050505050565b6000610ec5826109af565b9050919050565b610ed581610eba565b82525050565b6000608082019050610ef06000830187610958565b610efd6020830186610ecc565b8181036040830152610f0f8185610a36565b9050610f1e6060830184610958565b95945050505050565b7f4974656d20646f6573206e6f7420657869737400000000000000000000000000600082015250565b6000610f5d6013836109fb565b9150610f6882610f27565b602082019050919050565b60006020820190508181036000830152610f8c81610f50565b9050919050565b7f4974656d20616c726561647920736f6c64000000000000000000000000000000600082015250565b6000610fc96011836109fb565b9150610fd482610f93565b602082019050919050565b60006020820190508181036000830152610ff881610fbc565b9050919050565b7f496e636f7272656374204554482073656e740000000000000000000000000000600082015250565b60006110356012836109fb565b915061104082610fff565b602082019050919050565b6000602082019050818103600083015261106481611028565b9050919050565b60006060820190506110806000830186610958565b61108d6020830185610ecc565b61109a6040830184610958565b94935050505056fea26469706673582212201993faf30705561e654834f422754b161fc3a2e6d15efdf7a0ce52e4d9bcc69964736f6c634300081c0033",
  "linkReferences": {},
  "deployedLinkReferences": {}
}