{
  "_format": "hh-sol-artifact-1",
  "contractName": "Marketplace",
  "sourceName": "contracts/Marketplace.sol",
  "abi": [
    {
      "anonymous": false,
      "inputs": [
        {
          "indexed": false,
          "internalType": "uint256",
          "name": "id",
          "type": "uint256"
        },
        {
          "indexed": false,
          "internalType": "address",
          "name": "seller",
          "type": "address"
        },
        {
          "indexed": false,
          "internalType": "string",
          "name": "name",
          "type": "string"
        },
        {
          "indexed": false,
          "internalType": "uint256",
          "name": "price",
          "type": "uint256"
        }
      ],
      "name": "ItemListed",
      "type": "event"
    },
    {
      "anonymous": false,
      "inputs": [
        {
          "indexed": false,
          "internalType": "uint256",
          "name": "id",
          "type": "uint256"
        },
        {
          "indexed": false,
          "internalType": "address",
          "name": "buyer",
          "type": "address"
        },
        {
          "indexed": false,
          "internalType": "uint256",
          "name": "price",
          "type": "uint256"
        }
      ],
      "name": "ItemSold",
      "type": "event"
    },
    {
      "inputs": [
        {
          "internalType": "uint256",
          "name": "_id",
          "type": "uint256"
        }
      ],
      "name": "buyItem",
      "outputs": [],
      "stateMutability": "payable",
      "type": "function"
    },
    {
      "inputs": [],
      "name": "itemCount",
      "outputs": [
        {
          "internalType": "uint256",
          "name": "",
          "type": "uint256"
        }
      ],
      "stateMutability": "view",
      "type": "function"
    },
    {
      "inputs": [
        {
          "internalType": "uint256",
          "name": "",
          "type": "uint256"
        }
      ],
      "name": "items",
      "outputs": [
        {
          "internalType": "uint256",
          "name": "id",
          "type": "uint256"
        },
        {
          "internalType": "address payable",
          "name": "seller",
          "type": "address"
        },
        {
          "internalType": "string",
          "name": "name",
          "type": "string"
        },
        {
          "internalType": "string",
          "name": "description",
          "type": "string"
        },
        {
          "internalType": "uint256",
          "name": "price",
          "type": "uint256"
        },
        {
          "internalType": "bool",
          "name": "isSold",
          "type": "bool"
        }
      ],
      "stateMutability": "view",
      "type": "function"
    },
    {
      "inputs": [
        {
          "internalType": "string",
          "name": "_name",
          "type": "string"
        },
        {
          "internalType": "string",
          "name": "_description",
          "type": "string"
        },
        {
          "internalType": "uint256",
          "name": "_price",
          "type": "uint256"
        }
      ],
      "name": "listItem",
      "outputs": [],
      "stateMutability": "nonpayable",
      "type": "function"
    }
  ],
  "bytecode": "0x6080604052348015600f57600080fd5b50610f7f8061001f6000396000f3fe60806040526004361061003f5760003560e01c80630562021c146100445780636bfb0d011461006d578063bfb231d214610098578063e7fb74c7146100da575b600080fd5b34801561005057600080fd5b5061006b60048036038101906100669190610774565b6100f6565b005b34801561007957600080fd5b5061008261029a565b60405161008f919061080e565b60405180910390f35b3480156100a457600080fd5b506100bf60048036038101906100ba9190610829565b6102a0565b6040516100d196959493929190610931565b60405180910390f35b6100f460048036038101906100ef9190610829565b610419565b005b60008111610139576040517f08c379a0000000000000000000000000000000000000000000000000000000008152600401610130906109ec565b60405180910390fd5b60008081548092919061014b90610a3b565b91905055506040518060c0016040528060005481526020013373ffffffffffffffffffffffffffffffffffffffff1681526020018481526020018381526020018281526020016000151581525060016000805481526020019081526020016000206000820151816000015560208201518160010160006101000a81548173ffffffffffffffffffffffffffffffffffffffff021916908373ffffffffffffffffffffffffffffffffffffffff16021790555060408201518160020190816102129190610c8f565b5060608201518160030190816102289190610c8f565b506080820151816004015560a08201518160050160006101000a81548160ff0219169083151502179055509050507f4e3807e76e8c2a7b6547b6189eba5d3dc4fe2bc48c057e8ec545ec13be8063c560005433858460405161028d9493929190610d82565b60405180910390a1505050565b60005481565b60016020528060005260406000206000915090508060000154908060010160009054906101000a900473ffffffffffffffffffffffffffffffffffffffff16908060020180546102ef90610ab2565b80601f016020809104026020016040519081016040528092919081815260200182805461031b90610ab2565b80156103685780601f1061033d57610100808354040283529160200191610368565b820191906000526020600020905b81548152906001019060200180831161034b57829003601f168201915b50505050509080600301805461037d90610ab2565b80601f01602080910402602001604051908101604052809291908181526020018280546103a990610ab2565b80156103f65780601f106103cb576101008083540402835291602001916103f6565b820191906000526020600020905b8154815290600101906020018083116103d957829003601f168201915b5050505050908060040154908060050160009054906101000a900460ff16905086565b600060016000838152602001908152602001600020905060008211801561044257506000548211155b610481576040517f08c379a000000000000000000000000000000000000000000000000000000000815260040161047890610e1a565b60405180910390fd5b8060050160009054906101000a900460ff16156104d3576040517f08c379a00000000000000000000000000000000000000000000000000000000081526004016104ca90610e86565b60405180910390fd5b80600401543414610519576040517f08c379a000000000000000000000000000000000000000000000000000000000815260040161051090610ef2565b60405180910390fd5b8060010160009054906101000a900473ffffffffffffffffffffffffffffffffffffffff1673ffffffffffffffffffffffffffffffffffffffff166108fc349081150290604051600060405180830381858888f19350505050158015610583573d6000803e3d6000fd5b5060018160050160006101000a81548160ff0219169083151502179055507fa574c741071bb18f51fa88c17aeefec514bebf670ca22a3736fba6504ecbb763823383600401546040516105d893929190610f12565b60405180910390a15050565b6000604051905090565b600080fd5b600080fd5b600080fd5b600080fd5b6000601f19601f8301169050919050565b7f4e487b7100000000000000000000000000000000000000000000000000000000600052604160045260246000fd5b61064b82610602565b810181811067ffffffffffffffff8211171561066a57610669610613565b5b80604052505050565b600061067d6105e4565b90506106898282610642565b919050565b600067ffffffffffffffff8211156106a9576106a8610613565b5b6106b282610602565b9050602081019050919050565b82818337600083830152505050565b60006106e16106dc8461068e565b610673565b9050828152602081018484840111156106fd576106fc6105fd565b5b6107088482856106bf565b509392505050565b600082601f830112610725576107246105f8565b5b81356107358482602086016106ce565b91505092915050565b6000819050919050565b6107518161073e565b811461075c57600080fd5b50565b60008135905061076e81610748565b92915050565b60008060006060848603121561078d5761078c6105ee565b5b600084013567ffffffffffffffff8111156107ab576107aa6105f3565b5b6107b786828701610710565b935050602084013567ffffffffffffffff8111156107d8576107d76105f3565b5b6107e486828701610710565b92505060406107f58682870161075f565b9150509250925092565b6108088161073e565b82525050565b600060208201905061082360008301846107ff565b92915050565b60006020828403121561083f5761083e6105ee565b5b600061084d8482850161075f565b91505092915050565b600073ffffffffffffffffffffffffffffffffffffffff82169050919050565b600061088182610856565b9050919050565b61089181610876565b82525050565b600081519050919050565b600082825260208201905092915050565b60005b838110156108d15780820151818401526020810190506108b6565b60008484015250505050565b60006108e882610897565b6108f281856108a2565b93506109028185602086016108b3565b61090b81610602565b840191505092915050565b60008115159050919050565b61092b81610916565b82525050565b600060c08201905061094660008301896107ff565b6109536020830188610888565b818103604083015261096581876108dd565b9050818103606083015261097981866108dd565b905061098860808301856107ff565b61099560a0830184610922565b979650505050505050565b7f5072696365206d7573742062652067726561746572207468616e203000000000600082015250565b60006109d6601c836108a2565b91506109e1826109a0565b602082019050919050565b60006020820190508181036000830152610a05816109c9565b9050919050565b7f4e487b7100000000000000000000000000000000000000000000000000000000600052601160045260246000fd5b6000610a468261073e565b91507fffffffffffffffffffffffffffffffffffffffffffffffffffffffffffffffff8203610a7857610a77610a0c565b5b600182019050919050565b7f4e487b7100000000000000000000000000000000000000000000000000000000600052602260045260246000fd5b60006002820490506001821680610aca57607f821691505b602082108103610add57610adc610a83565b5b50919050565b60008190508160005260206000209050919050565b60006020601f8301049050919050565b600082821b905092915050565b600060088302610b457fffffffffffffffffffffffffffffffffffffffffffffffffffffffffffffffff82610b08565b610b4f8683610b08565b95508019841693508086168417925050509392505050565b6000819050919050565b6000610b8c610b87610b828461073e565b610b67565b61073e565b9050919050565b6000819050919050565b610ba683610b71565b610bba610bb282610b93565b848454610b15565b825550505050565b600090565b610bcf610bc2565b610bda818484610b9d565b505050565b5b81811015610bfe57610bf3600082610bc7565b600181019050610be0565b5050565b601f821115610c4357610c1481610ae3565b610c1d84610af8565b81016020851015610c2c578190505b610c40610c3885610af8565b830182610bdf565b50505b505050565b600082821c905092915050565b6000610c6660001984600802610c48565b1980831691505092915050565b6000610c7f8383610c55565b9150826002028217905092915050565b610c9882610897565b67ffffffffffffffff811115610cb157610cb0610613565b5b610cbb8254610ab2565b610cc6828285610c02565b600060209050601f831160018114610cf95760008415610ce7578287015190505b610cf18582610c73565b865550610d59565b601f198416610d0786610ae3565b60005b82811015610d2f57848901518255600182019150602085019450602081019050610d0a565b86831015610d4c5784890151610d48601f891682610c55565b8355505b6001600288020188555050505b505050505050565b6000610d6c82610856565b9050919050565b610d7c81610d61565b82525050565b6000608082019050610d9760008301876107ff565b610da46020830186610d73565b8181036040830152610db681856108dd565b9050610dc560608301846107ff565b95945050505050565b7f4974656d20646f6573206e6f7420657869737400000000000000000000000000600082015250565b6000610e046013836108a2565b9150610e0f82610dce565b602082019050919050565b60006020820190508181036000830152610e3381610df7565b9050919050565b7f4974656d20616c726561647920736f6c64000000000000000000000000000000600082015250565b6000610e706011836108a2565b9150610e7b82610e3a565b602082019050919050565b60006020820190508181036000830152610e9f81610e63565b9050919050565b7f496e636f7272656374204554482073656e740000000000000000000000000000600082015250565b6000610edc6012836108a2565b9150610ee782610ea6565b602082019050919050565b60006020820190508181036000830152610f0b81610ecf565b9050919050565b6000606082019050610f2760008301866107ff565b610f346020830185610d73565b610f4160408301846107ff565b94935050505056fea2646970667358221220d0b262987fb016237cf60bfd8b889c57834bff81b8da99ddea613cf74a55d75a64736f6c634300081c0033",
  "linkReferences": {},
  "deployedLinkReferences": {}
}